:020000040000FA
:100000000C945D000C94D50A0C94AE0A0C948500F7
:100010000C9485000C9485000C9485000C9485004C
:100020000C9485000C9485000C9485000C9485003C
:100030000C9485000C9485000C9485000C9485002C
:100040000C94640A0C9485000C94320A0C940C0AEB
:100050000C9485000C9485000C9485000C9485000C
:100060000C94FC0A0C9485000000000800020100BA
:100070000003040700000000000000000000000072
:10008000250028002B0000000000240027002A0083
:10009000040404040404040402020202020203032E
:1000A0000303030301020408102040800102040836
:1000B00010200102040810201B0C11241FBECFEFDA
:1000C000D8E0DEBFCDBF12E0A0E0B1E0ECE7FAE29D
:1000D00002C005900D92A235B107D9F723E0A2E541
:1000E000B2E001C01D92AF3FB207E1F710E0CDE5ED
:1000F000D0E004C02197FE010E943F13CC35D10708
:10010000C9F70E94540C0C943C150C94000090E02C
:10011000FC01EC55FF4F249180579F4FFC018491C7
:10012000882399F090E0880F991FFC01EA57FF4F50
:10013000A591B491FC01E458FF4F859194918FB73C
:10014000F894EC91E22BEC938FBF089581E090E05E
:100150009093530280935202089508950895AF92A8
:10016000BF92CF92DF92EF92FF920F931F93CF93A4
:10017000DF936C017B018B01040F151FEB015E0106
:10018000AE18BF08C017D10759F06991D601ED919B
:10019000FC910190F081E02DC6010995892B79F73A
:1001A000C501DF91CF911F910F91FF90EF90DF90EC
:1001B000CF90BF90AF900895FC01538D448D252FB3
:1001C00030E0842F90E0821B930B541710F0CF96F1
:1001D000089501970895FC01918D828D981761F023
:1001E000A28DAE0FBF2FB11D5D968C91928D9F5F3A
:1001F0009F73928F90E008958FEF9FEF0895FC0119
:10020000918D828D981731F0828DE80FF11D858DCB
:1002100090E008958FEF9FEF0895FC01918D228D5E
:10022000892F90E0805C9F4F821B91098F739927E3
:10023000089582E593E00E940D0121E0892B09F4E5
:1002400020E0822F089580E090E0892B29F00E9421
:10025000190181110C9400000895FC01A48DA80FD0
:10026000B92FB11DA35ABF4F2C91848D90E00196F8
:100270008F739927848FA689B7892C93A089B18918
:100280008C91837080648C93938D848D981306C0B9
:100290000288F389E02D80818F7D80830895EF921D
:1002A000FF920F931F93CF93DF93EC0181E0888F30
:1002B0009B8D8C8D98131AC0E889F989808185FF00
:1002C00015C09FB7F894EE89FF896083E889F989A2
:1002D00080818370806480839FBF81E090E0DF91A4
:1002E000CF911F910F91FF90EF900895F62E0B8DF7
:1002F00010E00F5F1F4F0F731127E02E8C8D8E11B2
:100300000CC00FB607FCFACFE889F989808185FF18
:10031000F5CFCE010E942D01F1CFEB8DEC0FFD2F1B
:10032000F11DE35AFF4FF0829FB7F8940B8FEA89D3
:10033000FB8980818062CFCFCF93DF93EC01888DE2
:100340008823B9F0AA89BB89E889F9898C9185FD50
:1003500003C0808186FD0DC00FB607FCF7CF8C91DE
:1003600085FFF2CF808185FFEDCFCE010E942D0168
:10037000E9CFDF91CF91089590E0FC01E859FF4F5C
:100380002491FC01EC55FF4F3491FC01E057FF4FE5
:10039000E491EE23C9F0222339F0233001F1A8F4CF
:1003A000213019F1223029F1F0E0EE0FFF1FE4585F
:1003B000FF4FA591B4918FB7F894EC91611126C0CD
:1003C00030953E233C938FBF08952730A9F0283005
:1003D000C9F0243049F7809180008F7D03C080915F
:1003E00080008F7780938000DFCF84B58F7784BDC6
:1003F000DBCF84B58F7DFBCF8091B0008F7780936A
:10040000B000D2CF8091B0008F7DF9CF3E2BDACFF4
:100410001F93CF93DF93182FEB010E948700209743
:1004200039F460E0812FDF91CF911F910C94BC01D2
:10043000CF3FD10511F461E0F5CFE12FF0E0E859AD
:10044000FF4FE491E33031F140F4E130B1F0E230BC
:10045000E1F0C038D1057CF7E4CFE73029F1E8308E
:1004600059F1E430B1F78091800080628093800080
:10047000D0938B00C0938A0004C084B5806884BD8B
:10048000C7BDDF91CF911F91089584B5806284BD6F
:10049000C8BDF7CF80918000806880938000D093A2
:1004A0008900C0938800EDCF8091B0008068809370
:1004B000B000C093B300E5CF8091B000806280931C
:1004C000B000C093B400DDCF3FB7F8948091BD0277
:1004D0009091BE02A091BF02B091C00226B5A89B28
:1004E00005C02F3F19F00196A11DB11D3FBFBA2FC6
:1004F000A92F982F8827BC01CD01620F711D811D86
:10050000911D42E0660F771F881F991F4A95D1F70A
:1005100008958F929F92AF92BF92CF92DF92EF9207
:10052000FF924B015C010E9464026B017C010E94FE
:1005300064026C197D098E099F09683E734081052C
:100540009105A8F321E0821A9108A108B10888EE6C
:10055000C80E83E0D81EE11CF11C81149104A10493
:10056000B10429F7FF90EF90DF90CF90BF90AF904C
:100570009F908F9008952FB7F8946091B902709171
:10058000BA028091BB029091BC022FBF08950F93D5
:100590001F930E94BB0260935A0370935B03809386
:1005A0005C0390935D0382E593E00E94FF0097FF58
:1005B0001DC00E94BB0200915A0310915B03209161
:1005C0005C0330915D03601B710B820B930B0091F8
:1005D0005603109157032091580330915903601727
:1005E000710782079307F8F28FEF9FEF1F910F912A
:1005F0000895089520919502260F3327331F213245
:100600003105ECF420912803FC0190E080E02430D7
:1006100069F082E00895A09195022191AC014B58B8
:100620005D4FA40FB52FB11D2C930196861798F33B
:1006300080919502680F6093950280E0089581E0B3
:1006400008951092280381E08093270310920203FB
:1006500061E082E10E94BC0161E083E10E94BC0193
:10066000E9EBF0E080818E7F808380818D7F8083C5
:1006700088E48093B80085E48093BC000895CF930C
:10068000DF9391E0909374028823B9F0C091B80091
:10069000D091BA008091BC008A7B8093BC0060E05E
:1006A00082E10E94BC0160E083E10E94BC010E94E3
:1006B0002103D093BA00C093B800DF91CF91089581
:1006C0008F929F92AF92BF92CF92DF92EF92FF9262
:1006D0000F931F93CF93DF93D0915103D13208F042
:1006E000D7C0182FC09150030E9464026B017C0197
:1006F0008091280381116BC082E0809328031093BE
:1007000027038FEF8093260310922503D0932403B1
:10071000A0E3B3E0E4E0F3E080E0D81391C01092EE
:10072000030380910303CC0FC82BC0930303809174
:100730000203813009F088C0109202030E94640213
:100740006B017C01809103038093BB0080912A039D
:1007500090912B03A0912C03B0912D03892B8A2B10
:100760008B2BA1F00E94640200912A0310912B03AD
:1007700020912C0330912D036C197D098E099F095E
:10078000061717072807390708F442C08091BC00F4
:1007900083FDD8CF85EC8093BC000E9464026B017E
:1007A0007C0180912803823009F450C08091260397
:1007B0008F3F09F46FC080912603803209F46CC02A
:1007C00080912603803309F469C084E026C08091BB
:1007D0002A0390912B03A0912C03B0912D03892B18
:1007E0008A2B8B2B09F484CF0E94640280902A0309
:1007F00090902B03A0902C03B0902D036C197D09D1
:100800008E099F0986169706A806B90608F070CFCC
:10081000809129030E943F0385E010922F031092DC
:10082000510310922E03DF91CF911F910F91FF90F2
:10083000EF90DF90CF90BF90AF909F908F900895F2
:100840009D9191938F5F69CF85EEA5CF80912A030B
:1008500090912B03A0912C03B0912D03892B8A2B0F
:100860008B2B09F49ECF0E94640200912A03109101
:100870002B0320912C0330912D036C197D098E09D7
:100880009F09061717072807390708F08ACFC0CF36
:1008900081E0C3CF80E0C1CF82E0BFCF83E0BDCF96
:1008A0000895E091C6028091C502E81730F4F0E0A7
:1008B000EC5AFD4F808190E008958FEF9FEF0895EF
:1008C0009091C6028091C5022FEF3FEF981748F430
:1008D000E92FF0E0EC5AFD4F208130E09F5F9093CC
:1008E000C602C90108958091C5029091C602891B74
:1008F000990B0895CF92DF92EF92FF920F931F937F
:10090000CF93DF937C01CB018A0120912E03222318
:1009100089F0EB016B01C40ED51ECC15DD0569F025
:100920006991D701ED91FC910190F081E02DC70113
:100930000995F3CF642F0E94FA02C801DF91CF918D
:100940001F910F91FF90EF90DF90CF900895CF937C
:10095000DF931F92CDB7DEB7698320912E03222348
:10096000F9F020915103203258F021E030E0FC01F1
:100970003383228390E080E00F90DF91CF91089540
:1009800080912F03E82FF0E0E05DFC4F9981908388
:100990008F5F80932F038093510381E090E0ECCF31
:1009A00061E0CE0101960E94FA02F7CF90E080E06C
:1009B0000895EF92FF921F93CF93DF937B01EA019B
:1009C00011E010932E039BE49093500310922F0399
:1009D00010925103682F8FEE93E00E94A7040197B5
:1009E00041F080E090E0DF91CF911F91FF90EF9078
:1009F000089580E00E9460038111F3CF10932E03CD
:100A000010922F0310925103AE01B7018FEE93E0C5
:100A10000E947A04C817D90721F781E00E94600379
:100A200021E090E0811120E0822FDDCFFC010190D8
:100A30000020E9F73197AF01481B590BBC0182E553
:100A400093E00C94AF00CF93DF930E941605EC0166
:100A500080E491E00E9416058C0F9D1FDF91CF91DD
:100A6000089583E491E00E94230570E060E085E052
:100A70000E94080260E086E00E94BC0160E087E01E
:100A80000E94BC0170E060E089E00E94080260E022
:100A90008AE00E94BC0160E08BE00C94BC018CE415
:100AA00092E00E9423056AEF70E085E00E94080250
:100AB00060E086E00E94BC0161E087E00E94BC012A
:100AC0006AEF70E089E00E94080261E08AE00E941B
:100AD000BC0160E08BE00C94BC0181E492E00E94D8
:100AE00023056AEF70E085E00E94080261E086E07D
:100AF0000E94BC0160E087E00E94BC0163E270E0FC
:100B000089E00E94080260E08AE00E94BC0161E086
:100B10008BE00C94BC0188E491E00E9423056AEF0D
:100B200070E085E00E94080261E086E00E94BC015E
:100B300060E087E00E94BC016AEF70E089E00E94FB
:100B4000080261E08AE00E94BC0160E08BE00C9446
:100B5000BC0181E591E00E9423056AEF70E085E029
:100B60000E94080260E086E00E94BC0161E087E02C
:100B70000E94BC0165EF70E089E00E94080260E01D
:100B80008AE00E94BC0161E08BE00C94BC018F9272
:100B90009F92AF92BF92CF92DF92EF92FF920F930C
:100BA0001F93CF93DF93CDB7DEB7A1970FB6F8941D
:100BB000DEBF0FBECDBF6C01990FEE08FF08F7FE38
:100BC00047C06DE282E593E00E944F018C0122272D
:100BD0003327A9012C193D094E095F0919A2CE013D
:100BE00081967C019AE0892E912CA12CB12CCA010E
:100BF000B901A50194010E940712605DF70162939B
:100C00007F01211531054105510589F790E080E00C
:100C1000309719F0CF010E941605080F191F80E4C4
:100C200091E00E941605800F911FA1960FB6F894CF
:100C3000DEBF0FBECDBFDF91CF911F910F91FF900F
:100C4000EF90DF90CF90BF90AF909F908F900895DE
:100C5000A701960119A28E010F5D1F4F8AE0C82ED1
:100C6000D12CE12CF12CCA01B901A70196010E94F7
:100C70000712605DF80162938F012115310541056E
:100C8000510589F7309729F0CF010E9416058C0194
:100C9000C6CF10E000E0C3CF4F925F926F927F9279
:100CA0008F929F92AF92BF92EF92FF920F931F93FA
:100CB000CF93DF935C014B017A01890181E080933E
:100CC0002E038BE48093500310922F031092510354
:100CD000E501CE018A199B09881599053CF46991B3
:100CE0008FEE93E00E94A704FC01F3CF319789F0C7
:100CF00080E090E0DF91CF911F910F91FF90EF90F6
:100D0000BF90AF909F908F907F906F905F904F902B
:100D1000089580E00E9460038111EACF0E9464027E
:100D20004B015C0180912803811168C0C02F013202
:100D300008F0C0E281E080932803809327039FEFAF
:100D400090932603109225039C0F90932403809385
:100D50000303809103038669809303038091020358
:100D6000813009F08AC0109202030E9464024B0194
:100D70005C01809103038093BB0080912A039091D2
:100D80002B03A0912C03B0912D03892B8A2B8B2B45
:100D9000A1F00E94640240902A0350902B036090BF
:100DA0002C0370902D03681979098A099B0946164E
:100DB00057066806790608F442C08091BC0083FD9E
:100DC000D8CF85EC8093BC000E9464024B015C018B
:100DD00080912803813009F452C0809125038C173B
:100DE00010F4C0912503A4E0B3E0E4E5F2E080E074
:100DF0008C1751F19D9191938F5FFACF80912A03C7
:100E000090912B03A0912C03B0912D03892B8A2B59
:100E10008B2B09F487CF0E94640240902A035090E4
:100E20002B0360902C0370902D03681979098A09AF
:100E30009B09461657066806790608F073CF80911D
:100E400029030E943F03C0E01092C602C093C5026E
:100E5000D0E0C0E09091C5028091C6029817A1F140
:100E60008FEE93E0C017D10764F50E946004F7018C
:100E7000EC0FFD1F80832196EDCF85EEA3CF8091EF
:100E80002A0390912B03A0912C03B0912D03892B61
:100E90008A2B8B2B09F49CCF0E94640240902A037A
:100EA00050902B0360902C0370902D0368197909E2
:100EB0008A099B09461657066806790608F088CF06
:100EC000BECF0E946004C6CF81E090E00C171D07E2
:100ED00009F410CF80E00ECFCF93DF93EC0188812F
:100EE0009981009711F00E94E113198218821D82E6
:100EF0001C821B821A82DF91CF9108957C018B01A5
:100F0000EA0189E591E00E941605C7010E942305C8
:100F100089E791E00E941605C8010E94230584E834
:100F200091E00E941605CE010E94C7056AE070E0BC
:100F300080E090E00E9489020E9427156F927F92C4
:100F40008F929F92AF92BF92CF92DF92EF92FF92D9
:100F50001F93CF93DF931F92CDB7DEB78730B0F0EA
:100F600090EF980F923090F09CEE980F903170F0C7
:100F700099ED980F943050F090ED980F983130F033
:100F800092EB980FF12CE12C9B33E0F55A014B01C9
:100F9000182FBA01550F880B990B0E94AD1020E055
:100FA00030E040E05DE30E94E8100E9438120E94A9
:100FB000C1123B01EE24E394F12CD12CC12CC614B8
:100FC000D70404F5C60125E0880F991F2A95E1F79B
:100FD000212F280F29832FEFC21AD20AA401480F0C
:100FE000591F20E230E0C614D70419F49501281BDC
:100FF000390B61E070E0CE0101960E944C06E822B8
:10100000F922DDCFC7010F90DF91CF911F91FF90A3
:10101000EF90DF90CF90BF90AF909F908F907F9098
:101020006F9008954F925F926F927F929F92AF92CE
:10103000BF92CF92DF92EF92FF920F931F93CF93C5
:10104000DF931F92CDB7DEB7982E6B018A010E9405
:10105000BB022B013C010D2C000CEE08FF080E9486
:10106000BB0264197509860997096C157D058E0503
:101070009F0508F041C0A090CB02B090CC02A11413
:10108000B10431F461E070E080E090E00E948902F8
:101090008091520290915302019711F0AB28F9F61A
:1010A0001092530210925202198241E050E0BE01A8
:1010B0006F5F7F4F85E00E949E079C019981892F79
:1010C000892169F22130310551F60115110511F020
:1010D000F801908381E00F90DF91CF911F910F91E4
:1010E000FF90EF90DF90CF90BF90AF909F907F9058
:1010F0006F905F904F90089580E0EDCF0F931F9316
:10110000CF93DF93EC0188819981009759F02A8170
:101110003B812617370730F081E0DF91CF911F9197
:101120000F9108958B016F5F7F4F0E946A140097A3
:1011300059F0998388831B830A832C813D81232B5B
:1011400059F7FC011082E8CF80E0E7CF85ED80936E
:10115000BC0080912A0390912B03A0912C03B091A5
:101160002D030796A11DB11D23E0B695A795979570
:1011700087952A95D1F72091BC0024FD03C01092D9
:101180002803089540912A0350912B0360912C036A
:1011900070912D03452B462B472B69F30097A10532
:1011A000B10541F025E32A95F1F700000197A10967
:1011B000B109E1CF809129030C943F036F927F9294
:1011C0008F929F92AF92BF92CF92DF92EF92FF9257
:1011D0000F931F93CF93DF93CDB7DEB749016DB661
:1011E0007EB60032110544F04BEF50E062E971E049
:1011F00080E191E00E947E075A012FEFA21AB20A05
:10120000EDB7FEB7EA19FB090FB6F894FEBF0FBEA3
:10121000EDBF2DB73EB72F5F3F4F69018183C901F5
:1012200001960E942C1598012F5F3F4F8DB79EB7F6
:10123000821B930B0FB6F8949EBF0FBE8DBFEDB708
:10124000FEB731967F01AF01B501C6010E944C0681
:10125000811115C099270FB6F8947EBE0FBE6DBEE2
:10126000DF91CF911F910F91FF90EF90DF90CF9082
:10127000BF90AF909F908F907F906F900895B7012F
:101280006F5F7F4FA801C4010E942C15F701808178
:1012900090E0E1CF5F926F927F928F929F92AF9298
:1012A000BF92CF92DF92EF92FF920F931F93CF9353
:1012B000DF93CDB7DEB729970FB6F894DEBF0FBE28
:1012C000CDBF5C014B013A018C83BD8282E08E83ED
:1012D000198641E050E0BE01675F7F4F85E00E94C4
:1012E0009E0710E000E030E020E043E050E0BE0167
:1012F0006C5F7F4F83EB0E94DE08892BC9F4F12CD1
:10130000E12CC70129960FB6F894DEBF0FBECDBF02
:10131000DF91CF911F910F91FF90EF90DF90CF90D1
:10132000BF90AF909F908F907F906F905F90089547
:101330000091CB021091CC021092CC021092CB0201
:10134000AE01475F5F4F68EE73E081E10E941208D3
:101350001093CC020093CB02882309F459C08985ED
:10136000982F9170D92E80FDCACF19821A821B82C4
:1013700043E050E0BE016F5F7F4F82E80E949E070E
:101380008A8190E0982F88272981820F911DA816C5
:10139000B90609F0B4CFCB806C2D70E066157705E7
:1013A00009F0ADCF072E000C880B990B0E94AD10F1
:1013B00020E030E048EF51E40E944F120E943812C2
:1013C0000E94C1125B01712C612C9FE1592E6A149D
:1013D0007B040CF096CFDF828FEF681A780AA61490
:1013E000B70491F05886088510E094012D0D311D49
:1013F00042E050E0BE01695F7F4F84EB0E94DE084F
:101400007C019FE1D90EE3CF8C2D8D198887EBCF1E
:1014100088E0E82EF12C75CF1F920F920FB60F9235
:1014200011242F933F934F935F936F937F938F93E9
:101430009F93AF93BF93EF93FF9382E593E00E9456
:101440002D01FF91EF91BF91AF919F918F917F916E
:101450006F915F914F913F912F910F900FBE0F9021
:101460001F9018951F920F920FB60F9211242F9371
:101470008F939F93EF93FF93E0916203F091630347
:101480008081E0916803F091690382FD1BC0908127
:1014900080916B038F5F8F7320916C03821741F0F3
:1014A000E0916B03F0E0EE5AFC4F958F80936B0355
:1014B000FF91EF919F918F912F910F900FBE0F9001
:1014C0001F9018958081F4CF1F920F920FB60F9244
:1014D00011242F933F938F939F93AF93BF9380914A
:1014E000B9029091BA02A091BB02B091BC023091B6
:1014F000B80223E0230F2D3758F50196A11DB11D29
:101500002093B8028093B9029093BA02A093BB02D1
:10151000B093BC028091BD029091BE02A091BF0227
:10152000B091C0020196A11DB11D8093BD029093A0
:10153000BE02A093BF02B093C002BF91AF919F9132
:101540008F913F912F910F900FBE0F901F90189584
:1015500026E8230F0296A11DB11DD2CF1F920F9234
:101560000FB60F9211242F933F934F935F936F9376
:101570007F938F939F93AF93BF93EF93FF93E091EC
:101580000201F09103010995FF91EF91BF91AF9195
:101590009F918F917F916F915F914F913F912F918B
:1015A0000F900FBE0F901F9018951F920F920FB6BD
:1015B0000F9211242F933F934F935F936F937F93D9
:1015C0008F939F93AF93BF93EF93FF93E0910001AD
:1015D000F09101010995FF91EF91BF91AF919F911A
:1015E0008F917F916F915F914F913F912F910F90CC
:1015F0000FBE0F901F9018951F920F920FB60F926B
:1016000011242F933F934F935F936F937F938F9307
:101610009F93AF93BF93EF93FF938091B900887F1F
:10162000803609F44AC0F0F5883209F4A7C018F5ED
:10163000803109F49BC0B8F4882309F4F9C08830DC
:1016400009F494C0FF91EF91BF91AF919F918F9159
:101650007F916F915F914F913F912F910F900FBEAE
:101660000F901F901895883109F488C0803251F787
:101670008093260314C0803409F49DC040F4803365
:10168000B9F38833F9F68093260385ECB0C0803532
:1016900009F485C0883509F496C0883499F60E940B
:1016A000A608D0CF883909F48CC038F5883729F0DE
:1016B00050F4883611F0803729F683E080932803B0
:1016C0001092B70257C0883809F47BC0803919F0EE
:1016D000803809F0B7CF8091B702803208F071C02E
:1016E000E091B70281E08E0F8093B7028091BB003A
:1016F000F0E0E956FD4F80833DC0803B39F0E0F4D7
:10170000803A09F479C0883A09F09CCF84E080934C
:1017100028031092960210929502E091C302F09174
:10172000C40209958091950281110FC081E08093D8
:1017300095021092750209C0803C09F4A6CF883C3E
:1017400009F4A3CF883B09F07DCFE091960281E0B8
:101750008E0F80939602F0E0EB58FD4F80818093CE
:10176000BB00909196028091950229C0809103035D
:101770008093BB0085EC8093BC0064CF90912503DF
:1017800080912403981758F5E091250381E08E0F8E
:1017900080932503F0E0EC5FFC4F8081E9CFE0917E
:1017A000250381E08E0F809325038091BB00F0E03C
:1017B000EC5FFC4F80839091250380912403981760
:1017C000C8F285E8D8CFE091250381E08E0F8093A1
:1017D00025038091BB00F0E0EC5FFC4F808380919B
:1017E000270381115CCF81E08093020384EA809318
:1017F000BC001092280326CF85EC8093BC00109289
:1018000028038091B702803230F4E091B702F0E013
:10181000E956FD4F10826091B70270E0E091C1027D
:10182000F091C20287E992E009951092B7020ACFBF
:101830001092260334CFE2E5F3E01382128288EEA1
:1018400093E0A0E0B0E084839583A683B78320E291
:1018500031E03183208325EC30E03587248724EC88
:1018600030E03787268720EC30E0318B208B21EC6D
:1018700030E0338B228B22EC30E0358B248B26EC4E
:1018800030E0378B268B118E128E138E148EEFEE76
:10189000F3E01382128284839583A683B78382E365
:1018A00091E0918380830895CF93DF93CDB7DEB726
:1018B0006A970FB6F894DEBF0FBECDBF789484B59B
:1018C000826084BD84B5816084BD85B5826085BD3C
:1018D00085B5816085BD80916E00816080936E00CA
:1018E00010928100809181008260809381008091BC
:1018F000810081608093810080918000816080936D
:1019000080008091B10084608093B1008091B0002C
:1019100081608093B00080917A00846080937A0027
:1019200080917A00826080937A0080917A00816051
:1019300080937A0080917A00806880937A00109278
:10194000C100E0916203F091630382E08083E09143
:101950005E03F0915F031082E0916003F0916103F8
:1019600080E1808310926A03E0916603F09167033F
:1019700086E08083E0916403F0916503808180615B
:101980008083E0916403F0916503808188608083A7
:10199000E0916403F0916503808180688083E09129
:1019A0006403F091650380818F7D808385E00E94D0
:1019B000870086E00E94870087E00E94870089E018
:1019C0000E9487008AE00E9487008BE00E948700C7
:1019D0001092C6021092C50210922F03109251036A
:1019E0000E9421038DEA90E09093C4028093C30289
:1019F0008EEA90E09093C2028093C1026AEF70E099
:101A000080E090E00E94890281E090E09093CC0217
:101A10008093CB0282E18B8343E050E08E010F5F25
:101A20001F4FB80180E00E949E07892B09F458C01F
:101A300029818A8190E09093CA028093C902FB8039
:101A40008F2D90E09093C8028093C70291E080E0D0
:101A5000233409F090E0C92ED82E41E050E0BE01B9
:101A6000665E7F4F83E00E949E07892BC9F18F2D10
:101A7000807E803271F58A8D8F3311F0D12CC12C8C
:101A800086EA90E0909301018093000180916900C3
:101A9000836080936900E89A84E0898F85E08B8B6E
:101AA00041E050E0BE016D5E7F4F81E10E94D904AC
:101AB00041E050E0BE01675E7F4F80E10E94D904A3
:101AC00080FF0EC061E070E080E090E00E9489023B
:101AD00005C08111D5CF8A8D803311F4CD2881F4D2
:101AE00084ED91E00E9423058DEF91E00E94230593
:101AF00064E670E080E090E00E9489020E94271571
:101B000010920901109208010E94BB026093CD025D
:101B10007093CE028093CF029093D0026AE070E07F
:101B200080E090E00E94890288E6282E33243394D6
:101B3000198E50E040E06AE070E084E00E941208F4
:101B4000B82E882309F462C041E350E061ED72E0F1
:101B500080E50E949E0741E050E0BE01675E7F4F36
:101B600086E00E949E070E94BB02C090CD02D090EA
:101B7000CE02E090CF02F090D0026C197D09CB012B
:101B8000770FAA0BBB0B8C0D9D1DAE1DBF1D809347
:101B9000CD029093CE02A093CF02B093D002A09139
:101BA000E702B091E80227E631E00E9438132FE700
:101BB00036E140E050E00E94A611290149018091E0
:101BC000060190910701873E934041F4509207012E
:101BD00040920601509205014092040182E593E093
:101BE0000E940D01181619060CF079C00E94C70258
:101BF000FC0197FD70C08D329105E1F0C0970A9706
:101C0000C8F082E593E00E94EB00F0CF198241E03A
:101C100050E0B80185E00E949E0780E090E0892BAB
:101C200009F486CF0E941901882309F481CF0E940C
:101C300000007ECFC12CD12C7601A12CE130F10522
:101C4000D9F0ED32F10509F444C0CF01C0970A97ED
:101C500098F4AAE0B0E0A70196010E94C5116F01B7
:101C6000FF0FEE08FF08C60ED71EE81EF91E30E370
:101C7000C31AD108E108F10882E593E00E94EB0065
:101C80000E94C702FC01C0970A97C0F2E130F1053B
:101C9000A9F2AA2041F0F094E094D094C094C11C21
:101CA000D11CE11CF11CD0920701C092060182E513
:101CB00093E00E94EB000A9709F090CF8CE092E04D
:101CC0000E94160580910601909107010E94C705A8
:101CD00085CFAB2CD1CFC12CD12C7601E4CF80E4C1
:101CE00080937C0080917A00806480937A00809158
:101CF0007A0086FDFCCF80917800E0907900FE2C80
:101D0000E82E1C8A1B8A1E8A1D8A188E1F8A4AE0AA
:101D1000B801C7010E947610F80101900020E9F790
:101D200031976F01C01AD10AB601CE0143960E94C5
:101D30007E0881110BC1CE0143960E946C071A8266
:101D400019821C821B821E821D8261E170E0C80123
:101D50000E947E08811102C1C8010E946C07AB88F5
:101D6000BC88A114B10409F404C1CF88D88CC11473
:101D7000D104B1F08D819E81C80ED91EB601C80173
:101D80000E947E08882309F4F4C029813A818D815C
:101D90009E81B501820F931F0E943515DE82CD8290
:101DA0004D815E8169817A8182E593E00E94AF0076
:101DB00080E491E00E94160589819A81009711F0D4
:101DC0000E94E1138B899C89009711F00E94E11316
:101DD0008BE292E00E941605C7010E94C70599ECAC
:101DE000E916F1040CF47EC0209106013091070140
:101DF00080910401909105012817390709F0BDC0B1
:101E00000E94310568EE73E080E090E00E94890254
:101E10000E948B0568EE73E080E090E00E948902EA
:101E20000E94310568EE73E080E090E00E94890234
:101E30000E946D056CED75E080E090E00E948902E3
:101E40000E94310568EE73E080E090E00E94890214
:101E50000E94A90568EE73E080E090E00E9489028C
:101E60000E94310568EE73E080E090E00E948902F4
:101E70000E946D0568EE73E080E090E00E948902A8
:101E80000E94310568EE73E080E090E00E948902D4
:101E90000E94A90568EE73E080E090E00E9489024C
:101EA0008091060190910701853B910554F0809146
:101EB000040190910501845B91099093070180933F
:101EC00006018091060190910701853B910554F42C
:101ED00080910401909105018C549F4F90930701CC
:101EE00080930601C2010E94C7058091060190916E
:101EF0000701881699060CF0EBC07C01E418F50880
:101F00009101281B390B420E531EF7FE03C0F194BA
:101F1000E194F10857FE03C0519441945108E41430
:101F2000F5040CF0C7C03BE0E316F1040CF4B9C0B3
:101F300085E1E816F1040CF475C00E946D054E149D
:101F40005F040CF06ACE0E944F0567CED88ECF8A10
:101F5000B8018B899C890E943515F1CE81E190E012
:101F60009E838D8369E172E089819A810E94351593
:101F7000F6CEC8010E946C0713CF0E94310568EEAF
:101F800073E080E090E00E9489020E948B0568EE79
:101F900073E080E090E00E9489020E94310568EEC3
:101FA00073E080E090E00E9489020E944F056CED92
:101FB00075E080E090E00E9489020E94310568EEA1
:101FC00073E080E090E00E9489020E94A90568EE1B
:101FD00073E080E090E00E9489020E94310568EE83
:101FE00073E080E090E00E9489020E944F0568EE55
:101FF00073E080E090E00E9489020E94310568EE63
:1020000073E080E090E00E9489020E94A90568EEDA
:1020100073E080E090E00E94890280910401909139
:1020200005015CCF8CE392E00E942305B70185E0B7
:102030000E94080260E086E00E94BC0161E087E047
:102040000E94BC016AEF70E089E00E94080260E033
:102050008AE00E94BC0161E08BE00E94BC014E144A
:102060005F040CF0DACD87E492E00E9423056AEF6A
:1020700070E085E00E94080260E086E00E94BC01FA
:1020800061E087E00E94BC01B70189E00E9408027C
:1020900060E08AE00E94BC0161E08BE00E94BC012C
:1020A000BCCD0E94A9054E145F040CF0B6CD0E9471
:1020B000A905B3CD4E145F040CF0AFCD9BE0E9163B
:1020C000F104ACF325E1E216F1040CF03CCFCBCFE8
:1020D000881599050CF0A1CD7101E418F508E80EFA
:1020E000F91E9C012419350929010FCFBB274A305D
:1020F00031F4992322F4BDE2909581959F4F0C9481
:102100008210BB27FB015527AA27880F991FAA1FFA
:10211000A41710F0A41B83955051B9F7A05DAA3302
:1021200008F0A95DA193009779F7B111B1931192CD
:10213000CB010C949B10DC01FC01672F719177237C
:10214000E1F7329704C07C916D9370836291AE1772
:10215000BF07C8F30895E89409C097FB3EF4909533
:102160008095709561957F4F8F4F9F4F9923A9F070
:10217000F92F96E9BB279395F695879577956795FF
:10218000B795F111F8CFFAF4BB0F11F460FF1BC043
:102190006F5F7F4F8F4F9F4F16C0882311F096E9D6
:1021A00011C0772321F09EE8872F762F05C0662384
:1021B00071F096E8862F70E060E02AF09A95660F3D
:1021C000771F881FDAF7880F9695879597F90895F6
:1021D0000E94FB100C946C110E945E1138F00E945A
:1021E000651120F0952311F00C9455110C945B119E
:1021F00011240C94A0110E947D1170F3959FC1F3DE
:10220000950F50E0551F629FF001729FBB27F00DA4
:10221000B11D639FAA27F00DB11DAA1F649F6627F9
:10222000B00DA11D661F829F2227B00DA11D621F48
:10223000739FB00DA11D621F839FA00D611D221F02
:10224000749F3327A00D611D231F849F600D211DE6
:10225000822F762F6A2F11249F5750409AF0F1F069
:1022600088234AF0EE0FFF1FBB1F661F771F881FD2
:1022700091505040A9F79E3F510580F00C945511A4
:102280000C94A0115F3FE4F3983ED4F386957795C4
:102290006795B795F795E7959F5FC1F7FE2B880F78
:1022A000911D9695879597F9089597F99F6780E80E
:1022B00070E060E008959FEF80EC089500240A9498
:1022C0001616170618060906089500240A94121611
:1022D0001306140605060895092E0394000C11F444
:1022E000882352F0BB0F40F4BF2B11F460FF04C0F1
:1022F0006F5F7F4F8F4F9F4F089557FD9058440F4A
:10230000551F59F05F3F71F04795880F97FB991F54
:1023100061F09F3F79F08795089512161306140611
:10232000551FF2CF4695F1DF08C01616170618069E
:10233000991FF1CF86957105610508940895E89479
:10234000BB2766277727CB0197F90895052E97FBC2
:102350001EF400940E94BD1157FD07D00E94071281
:1023600007FC03D04EF40C94BD1150954095309568
:1023700021953F4F4F4F5F4F0895909580957095F1
:1023800061957F4F8F4F9F4F08950E942912A59FFF
:10239000900DB49F900DA49F800D911D1124089560
:1023A0002F923F924F925F926F927F928F929F9265
:1023B000AF92BF92CF92DF92EF92FF920F931F9353
:1023C000CF93DF93CDB7DEB7CA1BDB0B0FB6F89404
:1023D000DEBF0FBECDBF09942A88398848885F8444
:1023E0006E847D848C849B84AA84B984C884DF80B5
:1023F000EE80FD800C811B81AA81B981CE0FD11D99
:102400000FB6F894DEBF0FBECDBFED010895A1E277
:102410001A2EAA1BBB1BFD010DC0AA1FBB1FEE1F5E
:10242000FF1FA217B307E407F50720F0A21BB30BA9
:10243000E40BF50B661F771F881F991F1A9469F725
:1024400060957095809590959B01AC01BD01CF0181
:102450000895A29FB001B39FC001A39F700D811D7D
:102460001124911DB29F700D811D1124911D08959D
:102470000E94201390F09F3748F4911116F40C94A9
:10248000A01160E070E080E89FE3089526F01B163D
:10249000611D711D811D0C94F7120C9412130E9482
:1024A00063120C946C110E94651158F00E945E1129
:1024B00040F029F45F3F29F00C94551151110C9410
:1024C000A0110C945B110E947D1168F39923B1F364
:1024D000552391F3951B550BBB27AA27621773074A
:1024E000840738F09F5F5F4F220F331F441FAA1FDE
:1024F000A9F335D00E2E3AF0E0E832D0915050409A
:10250000E695001CCAF72BD0FE2F29D0660F771F47
:10251000881FBB1F261737074807AB07B0E809F02D
:10252000BB0B802DBF01FF2793585F4F3AF09E3FB2
:10253000510578F00C9455110C94A0115F3FE4F311
:10254000983ED4F3869577956795B795F7959F5FF5
:10255000C9F7880F911D9695879597F90895E1E041
:10256000660F771F881FBB1F621773078407BA07A0
:1025700020F0621B730B840BBA0BEE1F88F7E095FB
:1025800008950E94C8126894B1110C94A011089586
:102590000E94851188F09F5798F0B92F9927B7515D
:1025A000B0F0E1F0660F771F881F991F1AF0BA95F7
:1025B000C9F714C0B13091F00E949F11B1E00895A5
:1025C0000C949F11672F782F8827B85F39F0B93F97
:1025D000CCF3869577956795B395D9F73EF49095AA
:1025E0008095709561957F4F8F4F9F4F08958823F9
:1025F00071F4772321F09850872B762F07C066233C
:1026000011F499270DC09051862B70E060E02AF0FC
:102610009A95660F771F881FDAF7880F969587952A
:1026200097F908959F3F31F0915020F48795779561
:102630006795B795880F911D9695879597F9089599
:102640000E948511A0F0BEE7B91788F4BB279F3818
:1026500060F41616B11D672F782F8827985FF7CF83
:10266000869577956795B11D93959639C8F308952A
:102670000E942912B7FF0895821B930B0895EE0F55
:10268000FF1F0590F491E02D09940F931F93CF93B2
:10269000DF938230910510F482E090E0E091FD0339
:1026A000F091FE0330E020E0B0E0A0E0309799F434
:1026B0002115310509F44AC0281B390B2430310596
:1026C000D8F58A819B816115710589F1FB0193839E
:1026D0008283FE0111C0408151810281138148171C
:1026E0005907E0F04817590799F4109761F01296CE
:1026F0000C93129713961C933296CF01DF91CF91D2
:102700001F910F9108950093FD031093FE03F4CFE2
:102710002115310551F04217530738F0A901DB01AB
:102720009A01BD01DF01F801C1CFEF01F9CF90930C
:10273000FE038093FD03CDCFFE01E20FF31F8193D3
:1027400091932250310939832883D7CF2091FB03FD
:102750003091FC03232B41F420910C0130910D01A9
:102760003093FC032093FB0320910A0130910B016D
:102770002115310541F42DB73EB740910E0150911E
:102780000F01241B350BE091FB03F091FC03E217D2
:10279000F307A0F42E1B3F0B2817390778F0AC0184
:1027A0004E5F5F4F2417350748F04E0F5F1F509361
:1027B000FC034093FB03819391939FCFF0E0E0E013
:1027C0009CCFCF93DF930097E9F0FC0132971382FF
:1027D0001282A091FD03B091FE03ED0130E020E0F4
:1027E0001097A1F420813181820F931F2091FB0368
:1027F0003091FC032817390709F061C0F093FC03FE
:10280000E093FB03DF91CF910895EA01CE17DF0734
:10281000E8F54A815B819E0141155105B1F7E90157
:10282000FB83EA8349915991C40FD51FEC17FD072B
:1028300061F4808191810296840F951FE90199834B
:102840008883828193819B838A83F0E0E0E0129603
:102850008D919C9113970097B9F52D913C9111970B
:10286000CD010296820F931F2091FB033091FC0350
:102870002817390739F6309751F51092FE03109258
:10288000FD03B093FC03A093FB03BCCFD383C283AF
:1028900040815181840F951FC817D90761F44E5F9D
:1028A0005F4F88819981480F591F518340838A81E6
:1028B0009B81938382832115310509F0B0CFF0937A
:1028C000FE03E093FD039ECFFD01DC01C0CF138228
:1028D0001282D7CFB0E0A0E0E0E7F4E10C94D2118F
:1028E0008C01009751F4CB010E9445138C01C80163
:1028F000CDB7DEB7E0E10C94EE11FC01E60FF71F57
:102900009C0122503109E217F30708F49DC0D90158
:10291000CD91DC911197C617D70798F0C530D10536
:1029200030F3CE0104978617970708F3C61BD70B21
:102930002297C193D1936D937C93CF010E94E113B1
:10294000D6CF5B01AC1ABD0A4C018C0E9D1EA09126
:10295000FD03B091FE03512C412CF12CE12C10977A
:1029600031F58091FB039091FC038815990509F0DE
:102970005CC04616570608F058C080910A01909135
:102980000B01009741F48DB79EB740910E01509115
:102990000F01841B950BE817F90708F055C0F09359
:1029A000FC03E093FB03F90171836083A0CF8D9159
:1029B0009C91119712966C90129713967C90139796
:1029C000A815B90559F56C0142E0C40ED11CCA1412
:1029D000DB0420F1AC014A195B09DA011296159764
:1029E00080F06282738251834083D9016D937C931E
:1029F000E114F10471F0D7011396FC93EE93129752
:102A000076CF22968C0F9D1FF90191838083F3016D
:102A1000EFCFF093FE03E093FD0369CF481659060C
:102A200008F42C017D01D3019ACFCB010E944513FC
:102A30007C01009749F0AE01B8010E942C15C80135
:102A40000E94E113870153CF10E000E050CF81E0F6
:102A500090E0F8940C943C15FB01DC0102C001905D
:102A60000D9241505040D8F70895FB01DC010190D0
:102A70000D920020E1F70895F894FFCFF902F902D2
:102A8000E703E70306660000FF0380007265674600
:102A9000756E6374696F6E00000000004F01AF0037
:102AA000DC009C010D01EB00FF0000000000A7040A
:102AB0007A04D60450047304600451040D0A0053D0
:102AC000746F70004261636B7761726400466F726D
:102AD0007761726400417373657274696F6E20660A
:102AE00061696C656420696E2066756E6374696FD8
:102AF0006E203A200046696C656E616D653A200073
:102B00004C696E65206E756D6265723A2000433ABD
:102B10005C55736572735C4D61617274656E5C4483
:102B20006F63756D656E74735C41726475696E6F09
:102B30005C6C69627261726965735C506F7A7978F6
:102B40005C506F7A79785F636F72652E6370700086
:102B50004552524F523A20556E61626C6520746F37
:102B600020636F6E6E65637420746F20504F5A59E6
:102B70005820736869656C640052657365742072CF
:102B800065717569726564004E657720686561647A
:102B9000696E673A0053656E736F72446174614683
:102BA000726F6E743A2000506572696D657465725B
:102BB0002066726F6E743A00737465617252696751
:0E2BC00068740073746561724C656674000081
:107E0000112484B714BE81FFF0D085E080938100F7
:107E100082E08093C00088E18093C10086E0809377
:107E2000C20080E18093C4008EE0C9D0259A86E02C
:107E300020E33CEF91E0309385002093840096BBD3
:107E4000B09BFECF1D9AA8958150A9F7CC24DD24C4
:107E500088248394B5E0AB2EA1E19A2EF3E0BF2EE7
:107E6000A2D0813461F49FD0082FAFD0023811F036
:107E7000013811F484E001C083E08DD089C08234E0
:107E800011F484E103C0853419F485E0A6D080C0E4
:107E9000853579F488D0E82EFF2485D0082F10E0AE
:107EA000102F00270E291F29000F111F8ED06801E7
:107EB0006FC0863521F484E090D080E0DECF843638
:107EC00009F040C070D06FD0082F6DD080E0C81688
:107ED00080E7D80618F4F601B7BEE895C0E0D1E017
:107EE00062D089930C17E1F7F0E0CF16F0E7DF06D8
:107EF00018F0F601B7BEE89568D007B600FCFDCFD4
:107F0000A601A0E0B1E02C9130E011968C91119780
:107F100090E0982F8827822B932B1296FA010C0160
:107F200087BEE89511244E5F5F4FF1E0A038BF0790
:107F300051F7F601A7BEE89507B600FCFDCF97BE46
:107F4000E89526C08437B1F42ED02DD0F82E2BD052
:107F50003CD0F601EF2C8F010F5F1F4F84911BD097
:107F6000EA94F801C1F70894C11CD11CFA94CF0C13
:107F7000D11C0EC0853739F428D08EE10CD085E9AC
:107F80000AD08FE07ACF813511F488E018D01DD067
:107F900080E101D065CF982F8091C00085FFFCCF94
:107FA0009093C60008958091C00087FFFCCF809118
:107FB000C00084FD01C0A8958091C6000895E0E648
:107FC000F0E098E1908380830895EDDF803219F02E
:107FD00088E0F5DFFFCF84E1DECF1F93182FE3DFCA
:107FE0001150E9F7F2DF1F91089580E0E8DFEE27F6
:047FF000FF270994CA
:027FFE00040479
:00000001FF
